:020000040000FA
:100000000C94DA000C9402010C9402010C9402018D
:100010000C9402010C9402010C9402010C94020154
:100020000C9402010C9402010C9402010C94020144
:100030000C9402010C9402010C9402010C94020134
:100040000C9455080C9402010C94C5080C949F085C
:100050000C9402010C9402010C9402010C94020114
:100060000C9402010C94020100407A10F35A00A093
:10007000724E18090010A5D4E80000E87648170071
:1000800000E40B54020000CA9A3B000000E1F505B1
:10009000000080969800000040420F000000A086FB
:1000A00001000000102700000000E803000000002D
:1000B0006400000000000A000000000001000000D1
:1000C00000002C76D888DC674F0823DFC1DFAE59EB
:1000D000E1B1B796E5E3E453C63AE651997696E87E
:1000E000E6C28426EB898C9B62ED407C6FFCEFBC02
:1000F0009C9F40F2BAA56FA5F490055A2AF75C932D
:100100006B6CF9676DC11BFCE0E40D47FEF520E662
:10011000B500D0ED902E0300943577050080841E45
:10012000080000204E0A000000C80C333333330FA0
:10013000986E12831141EF8D2114893BE65516CF3D
:10014000FEE6DB18D1844B381BF77C1D901DA4BB49
:10015000E424203284725E228100C9F124ECA1E5FE
:100160003D27000000080002010000030407000012
:1001700000000000000000000000250028002B0007
:1001800000000000240027002A00040404040404E2
:100190000404020202020202030303030303010236
:1001A0000408102040800102040810200102040805
:1001B00010205B0911241FBECFEFD8E0DEBFCDBFFA
:1001C00022E0A8E4B1E001C01D92AE3BB207E1F726
:1001D00011E0A0E0B1E0ECE2F6E202C005900D9281
:1001E000A834B107D9F710E0CAEDD0E004C02197D8
:1001F000FE010E94FA10C93DD107C9F70E94990972
:100200000C9414130C94000090E0FC01E256FE4F95
:10021000249186579E4FFC018491882399F090E0A9
:10022000880F991FFC01E058FE4FA591B491FC0185
:10023000EA58FE4F859194918FB7F894EC91E22B98
:10024000EC938FBF089590E0FC01EE59FE4F24918E
:10025000FC01E256FE4F3491FC01E657FE4FE4915B
:10026000EE23C9F0222339F0233001F1A8F4213024
:1002700019F1223029F1F0E0EE0FFF1FEA58FE4F8E
:10028000A591B4918FB7F894EC91611126C0309587
:100290003E233C938FBF08952730A9F02830C9F042
:1002A000243049F7809180008F7D03C080918000C9
:1002B0008F7780938000DFCF84B58F7784BDDBCFCD
:1002C00084B58F7DFBCF8091B0008F778093B00095
:1002D000D2CF8091B0008F7DF9CF3E2BDACFAF9295
:1002E000BF92CF92DF92EF92FF920F931F93CF9323
:1002F000DF936C017B018B01040F151FEB015E0185
:10030000AE18BF08C017D10759F06991D601ED9119
:10031000FC910190F081E02DC6010995892B79F7B8
:10032000C501DF91CF911F910F91FF90EF90DF906A
:10033000CF90BF90AF900895FC01538D448D252F31
:1003400030E0842F90E0821B930B541710F0CF966F
:10035000089501970895FC01918D828D981761F0A1
:10036000A28DAE0FBF2FB11D5D968C91928D9F5FB8
:100370009F73928F90E008958FEF9FEF0895FC0197
:10038000918D828D981731F0828DE80FF11D858D4A
:1003900090E008958FEF9FEF0895FC01918D228DDD
:1003A000892F90E0805C9F4F821B91098F73992762
:1003B000089581E591E00E94CD0121E0892B09F4A7
:1003C00020E0822F089580E090E0892B29F00E94A0
:1003D000D90181110C9400000895FC01A48DA80F8F
:1003E000B92FB11DA35ABF4F2C91848D90E0019677
:1003F0008F739927848FA689B7892C93A089B18997
:100400008C91837080648C93938D848D981306C037
:100410000288F389E02D80818F7D80830895EF929B
:10042000FF920F931F93CF93DF93EC0181E0888FAE
:100430009B8D8C8D98131AC0E889F989808185FF7E
:1004400015C09FB7F894EE89FF896083E889F98920
:1004500080818370806480839FBF81E090E0DF9122
:10046000CF911F910F91FF90EF900895F62E0B8D75
:1004700010E00F5F1F4F0F731127E02E8C8D8E1130
:100480000CC00FB607FCFACFE889F989808185FF97
:10049000F5CFCE010E94ED01F1CFEB8DEC0FFD2FDA
:1004A000F11DE35AFF4FF0829FB7F8940B8FEA8952
:1004B000FB8980818062CFCFCF93DF93EC01888D61
:1004C0008823B9F0AA89BB89E889F9898C9185FDCF
:1004D00003C0808186FD0DC00FB607FCF7CF8C915D
:1004E00085FFF2CF808185FFEDCFCE010E94ED0127
:1004F000E9CFDF91CF910895CF93DF93FC0127815E
:10050000222329F1EC0180850E94040189850E9443
:1005100004018F81843011F0883099F48A850E941B
:1005200004018B850E9404018FA58F3F81F00E94FA
:1005300004016EA581E068278FA5DF91CF910C940F
:100540002301833011F0863079F78A85EBCFDF9174
:10055000CF910895CF93DF93FC0127812223A1F04F
:10056000EC010190F081E02D0284F385E02D60E044
:1005700009958FA58F3F41F00E9404016EA58FA5BC
:10058000DF91CF910C942301DF91CF910895DC018D
:10059000ED91FC9122853385477055276627772793
:1005A00041505109610971094730510561057105D3
:1005B00060F4FA01E252FD4F0C94FA10E802EA02EC
:1005C000EC02EE02F002F202F40261E0F901099499
:1005D00065E0FCCF64E0FACF66E0F8CF62E0F6CFEA
:1005E0006AE0F4CF68E0F2CF69E0F0CFCF93DF9319
:1005F000EC01CB01BA0126E030E040E050E00E947F
:10060000DB10623071058105910589F16CF461158B
:10061000710581059105D1F0613071058105910564
:10062000F9F0DF91CF91089564307105810591054E
:1006300061F124F1653071058105910591F7E8813B
:10064000F9810284F385E02D66E006C0E881F98136
:100650000284F385E02D64E0CE01DF91CF9109940F
:10066000E881F9810284F385E02D65E0F5CFE8812A
:10067000F9810284F385E02D61E0EECFE881F98114
:100680000284F385E02D63E0E7CFE881F9810284FD
:10069000F385E02D62E0E0CFDC01ED91FC91028476
:1006A000F385E02D437055276627772742305105A3
:1006B0006105710571F0433051056105710559F00F
:1006C000413051056105710511F065E0099466E05E
:1006D000FDCF6AE0FBCF69E0F9CFCF93DF93EC0168
:1006E000CB01BA0123E030E040E050E00E94DB1093
:1006F000613071058105910599F0623071058105C0
:100700009105A9F0672B682B692BC1F4E881F98169
:100710000284F385E02D64E0CE01DF91CF9109944E
:10072000E881F9810284F385E02D61E0F5CFE8816D
:10073000F9810284F385E02D62E0EECFDF91CF9165
:100740000895DC01ED91FC910284F385E02D437066
:10075000552766277727423051056105710571F0ED
:10076000433051056105710559F04130510561056E
:10077000710511F062E0099463E0FDCF61E0FBCF09
:1007800060E0F9CFCF93DF93EC01E881F981028437
:10079000F385E02D8A8160E0811162E0CE01099548
:1007A000E881F9810284F385E02D8A8161E081117D
:1007B00063E0CE0109958CA59DA58230910538F0A6
:1007C000880F991F880F991F05970197F1F7E88106
:1007D000F9810284F385E02D8A8160E0811162E075
:1007E000CE01DF91CF910994CF93DF93EC0120E00C
:1007F00030E0A901688D798D8A8D9B8D0E947B10D8
:1008000018162CF4E8A9F9A9DF91CF910994EAA967
:10081000FBA9FACFCF92DF92EF92FF920F931F9333
:10082000CF93DF93DC011796CC91C43039F0C830F8
:1008300059F1C33019F0C63049F1C2E08C01085FAC
:100840001F4FF12CE12CC62ED12CD1E0F801648190
:10085000C6010E2C02C0959587950A94E2F780FD9B
:100860006D270F5F1F4F80810E942301BFEFEB1A9E
:10087000FB0AEC1658F3DF91CF911F910F91FF9077
:10088000EF90DF90CF900895C4E0D8CFC3E0D6CFEB
:10089000DC011796EC911797E93008F038C0F0E0CA
:1008A000EC5AFB4F0C94FA105D04630469046F0466
:1008B000750487047B0487048104ED91FC91068410
:1008C000F785E02D0994ED91FC910088F189E02DE8
:1008D000F9CFED91FC910288F389E02DF3CFED91F2
:1008E000FC910488F589E02DEDCFED91FC9106880F
:1008F000F789E02DE7CFED91FC91008CF18DE02D93
:10090000E1CFED91FC91028CF38DE02DDBCF0895CA
:100910004F925F926F927F928F929F92AF92BF920F
:10092000CF92DF92EF92FF920F931F93CF93DF93BB
:10093000EC01CC88DD88EE88FF8888899989AA89AE
:10094000BB89C81AD90AEA0AFB0A688D798D8A8D93
:100950009B8D9B01AC010E94710E4B015C0168A153
:1009600079A18AA19BA19B01AC010E94670F9B0109
:10097000AC01C501B4010E94D30F0E944510C114FF
:10098000D104E104F10409F0B6C0623071058105BB
:1009900091050CF0D0C01B821C821D821E82188E15
:1009A000198E1A8E1B8E1CAA1DAA1EAA1FAAC12C44
:1009B000D12C7601C701B601DF91CF911F910F9124
:1009C000FF90EF90DF90CF90BF90AF909F908F906F
:1009D0007F906F905F904F90089510161106120649
:1009E0001306B4F46C157D058E059F051CF42A8151
:1009F0002111A1C09B01AC0188279927DC01821B32
:100A0000930BA40BB50B8CAB9DABAEABBFAB93C044
:100A1000011511052105310509F48DC06C157D0501
:100A20008E059F050CF087C08A81882309F483C056
:100A300030952095109501951F4F2F4F3F4F0CABD0
:100A40001DAB2EAB3FAB77C001151105210531055C
:100A500009F471C08824992454018C189D08AE08AB
:100A6000BF08681579058A059B050CF064C08A816A
:100A7000811161C0DDCFCCACDDACEEACFFACA70129
:100A80009601C701B6010E94670F2B013C01C50109
:100A9000B4010E94120E20E030E040E850E40E94D1
:100AA000710E20E030E040E85FE30E94670F9B0199
:100AB000AC01C301B2010E94D30F9B01AC01C7017D
:100AC000B6010E94660F3B016C01FE01E05CFF4F26
:100AD000E080F180028113819701A8010E947B10C0
:100AE000181614F473018601C701D8018CAF9DAFAD
:100AF000AEAFBFAF3AC00CA91DA92EA93FA91C14C7
:100B00001D041E041F040CF468CF101611061206F3
:100B100013060CF099CF0027112798010C191D0915
:100B20002E093F0960177107820793070CF062CF07
:100B30002A8121115FCF8CA89DA8AEA8BFA88114DF
:100B40009104A104B10409F096CF88AD99ADAAAD86
:100B5000BBAD8CAF9DAFAEAFBFAF81E01C141D0429
:100B60001E041F040CF080E08A833FEF831A930A6F
:100B7000A30AB30A8CAA9DAAAEAABFAA8CAC9DAC4C
:100B8000AEACBFACC501B4010E944C106B017C013E
:100B9000CB82DC82ED82FE82A501940160E074E2EA
:100BA00084E799E40E94D30F688F798F8A8F9B8F97
:100BB0002A812111FFCE9058688F798F8A8F9B8F61
:100BC000F9CECF92DF92EF92FF92CF93DF93EC01B9
:100BD0008B819C81AD81BE81892B8A2B8B2B09F463
:100BE00053C03FB7F89480914D0190914E01A09170
:100BF0004F01B091500126B5A89B05C02F3F19F0B9
:100C00000196A11DB11D3FBFBA2FA92F982F88278C
:100C10006C017D01C20ED11CE11CF11C42E0CC0C28
:100C2000DD1CEE1CFF1C4A95D1F788A599A5AAA545
:100C3000BBA5B701A601481B590B6A0B7B0B8B8127
:100C40009C81AD81BE81481759076A077B07E0F098
:100C500088899989AA89BB892A812223B1F10196C1
:100C6000A11DB11D888B998BAA8BBB8B4889598993
:100C70006A897B89CE010E944804C8A6D9A6EAA643
:100C8000FBA6CE010E94880420E030E0A901688D17
:100C9000798D8A8D9B8D0E940B0E81111AC081E087
:100CA000CC88DD88EE88FF88488959896A897B89E4
:100CB000C416D506E606F70609F480E0DF91CF9169
:100CC000FF90EF90DF90CF9008950197A109B109AF
:100CD000C9CF81E0F3CFCF92DF92EF92FF920F93D3
:100CE0001F93CF93DF93EC016A017B0120E030E09A
:100CF000A901CB01B6010E940B0E87FF04C0F7FAD1
:100D0000F094F7F8F094A70196016C8D7D8D8E8D8F
:100D10009F8D0E940B0E882309F446C0CC8EDD8E79
:100D2000EE8EFF8E8E01005C1F4FA701960160E0E2
:100D300074E284E799E40E94D30FF8016083718321
:100D4000828393838CA99DA9AEA9BFA91816190601
:100D50001A061B064CF5688D798D8A8D9B8D9B013B
:100D6000AC010E94710E6B017C0168A179A18AA17E
:100D70009BA19B01AC010E94670F9B01AC01C701C5
:100D8000B6010E94D30F0E9445106CAB7DAB8EABB9
:100D90009FABCE01DF91CF911F910F91FF90EF900C
:100DA000DF90CF900C948804DF91CF911F910F9129
:100DB000FF90EF90DF90CF900895089542E050E0CB
:100DC00068E371E081E591E00C946F014F925F92CE
:100DD0006F927F928F929F92AF92BF92CF92DF924B
:100DE000EF92FF92CF93DF93EC016A017B0120E049
:100DF00030E0A901CB01B6010E940B0E87FF04C0B1
:100E0000F7FAF094F7F8F09488A099A0AAA0BBA0F4
:100E1000A7019601C501B4010E940B0E882309F4B5
:100E20004DC06CA97DA98EA99FA90E94120E2B010D
:100E30003C01A7019601C501B4010E94D30F9B019B
:100E4000AC01C301B2010E94710E0E9445106CAB4F
:100E50007DAB8EAB9FABA701960160E070E080E0B8
:100E600090E40E94D30F0E94861026E53EE04DE2FA
:100E70005FE30E94710E20E034E244E759E40E94EF
:100E8000710E68AF79AF8AAF9BAFC8A2D9A2EAA2B0
:100E9000FBA2E881F9810084F185E02DCE01DF918C
:100EA000CF91FF90EF90DF90CF90BF90AF909F9049
:100EB0008F907F906F905F904F900994DF91CF91CA
:100EC000FF90EF90DF90CF90BF90AF909F908F906A
:100ED0007F906F905F904F9008950F931F93CF93E3
:100EE000DF93EC0188819981009759F02A813B8139
:100EF0002617370730F081E0DF91CF911F910F91D6
:100F000008958B016F5F7F4F0E944712009759F041
:100F1000998388831B830A832C813D81232B59F776
:100F2000FC011082E8CF80E0E7CFCF93DF93EC01A4
:100F300088819981009711F00E94BE111982188250
:100F40001D821C821B821A82DF91CF9108950F931C
:100F50001F93CF93DF93EC010C811D810E5F1F4F18
:100F6000B8010E946D07882391F0288139818C8116
:100F70009D816BE371E0820F931F0E940D131D830F
:100F80000C83CE01DF91CF911F910F910895CE0177
:100F90000E949507F6CFCF92DF92EF92FF920F93C8
:100FA0001F93CF93DF93CDB7DEB7A1970FB6F89419
:100FB000DEBF0FBECDBF7C01CB01BA01F7011182AC
:100FC000108213821282158214828E010F5F1F4FCE
:100FD00022E044E00E94B60B6C01009771F0FC0126
:100FE00001900020E9F731978F01081B190BB80118
:100FF000C7010E946D07811112C0C7010E949507A9
:10100000A1960FB6F894DEBF0FBECDBFDF91CF9192
:101010001F910F91FF90EF90DF90CF900895F7010F
:1010200015830483B601808191810E940D13E8CF5E
:10103000EF92FF920F931F93CF93DF93EC01FB018D
:10104000E080F180E114F10411F1048115810115B2
:101050001105A9F08C819D81080F191FB801CE01DF
:101060000E946D07882399F0288139818C819D81A8
:10107000B701820F931F0E940D131D830C83CE01B5
:10108000DF91CF911F910F91FF90EF900895CE01C6
:101090000E949507F4CFFC0180819181009711F0A7
:1010A0000C94BE1108950C94BE111F920F920FB6AE
:1010B0000F9211242F933F938F939F93AF93BF93DE
:1010C0008091490190914A01A0914B01B0914C014E
:1010D0003091480123E0230F2D3758F50196A11DCB
:1010E000B11D209348018093490190934A01A09338
:1010F0004B01B0934C0180914D0190914E01A09114
:101100004F01B09150010196A11DB11D80934D0179
:1011100090934E01A0934F01B0935001BF91AF91B6
:101120009F918F913F912F910F900FBE0F901F9025
:10113000189526E8230F0296A11DB11DD2CF1F924C
:101140000F920FB60F9211242F933F934F935F93FB
:101150006F937F938F939F93AF93BF93EF93FF937F
:1011600081E591E00E94ED01FF91EF91BF91AF9178
:101170009F918F917F916F915F914F913F912F91AF
:101180000F900FBE0F901F9018951F920F920FB6E1
:101190000F9211242F938F939F93EF93FF93E091DE
:1011A0006101F09162018081E0916701F091680135
:1011B00082FD1BC0908180916A018F5F8F732091A7
:1011C0006B01821741F0E0916A01F0E0EF5AFE4FA7
:1011D000958F80936A01FF91EF919F918F912F914D
:1011E0000F900FBE0F901F9018958081F4CFCF9372
:1011F000DF93EC018AE091E09983888324E02F83D8
:10120000188A198A1A8A1B8A1C8A1D8A1E8A1F8AB2
:10121000188E198E1A8E1B8E1C8E1D8E1E8E1F8E82
:1012200018A219A21AA21BA280E090E0A0E8BFE3D6
:101230008CA39DA3AEA3BFA31B821C821D821E8212
:10124000E1E0F0E0FDA7ECA73FEF3FA718A619A645
:101250001AA61BA6688749872A8725E02B871EA622
:101260001CAA1DAA1EAA1FAA18AE19AE1AAE1BAE42
:101270001CAE1DAE1EAE1FAEFE01E05CFF4F8083B4
:101280009183A283B3831A821C861D861E861F86C5
:10129000CE010E947C0240E050E060E87FE3CE0196
:1012A0000E94E60640E050E060E87FE3CE01DF9177
:1012B000CF910C946B06E1E5F1E01382128288EE87
:1012C00093E0A0E0B0E084839583A683B7838AE2AD
:1012D00091E09183808385EC90E09587848784EC0E
:1012E00090E09787868780EC90E0918B808B81ECF3
:1012F00090E0938B828B82EC90E0958B848B86ECD4
:1013000090E0978B868B118E128E138E148E49E08F
:1013100068E086E792E00E94F70845E064E082E337
:1013200092E00E94F7084DE06CE08EEE91E00C94A4
:10133000F708CF93DF93CDB7DEB768970FB6F89471
:10134000DEBF0FBECDBF789484B5826084BD84B506
:10135000816084BD85B5826085BD85B5816085BDB0
:1013600080916E00816080936E0010928100809168
:1013700081008260809381008091810081608093F0
:101380008100809180008160809380008091B10015
:1013900084608093B1008091B00081608093B00040
:1013A00080917A00846080937A0080917A008260D4
:1013B00080937A0080917A00816080937A00809196
:1013C0007A00806880937A001092C10087E00E94C2
:1013D000040188E00E94040186E00E94040185E087
:1013E0000E94040184E00E94040183E00E94040141
:1013F00061E087E00E94230161E088E00E94230110
:1014000061E086E00E94230161E085E00E94230103
:1014100061E084E00E94230161E083E00E942301F7
:1014200040E050E06AE774E486E792E00E946B06D1
:1014300040E050E06AEF73E486E792E00E94E6063F
:1014400040E050E06AE774E482E392E00E946B06B9
:1014500040E050E06AEF73E482E392E00E94E60627
:1014600040E050E06AE774E48EEE91E00E946B0683
:1014700040E050E06AEF73E48EEE91E00E94E606F1
:10148000E0916101F091620182E08083E0915D0171
:10149000F0915E011082E0915F01F09160018FECAC
:1014A000808310926901E0916501F091660186E008
:1014B0008083E0916301F091640180818061808389
:1014C000E0916301F0916401808188608083E09104
:1014D0006301F0916401808180688083E091630101
:1014E000F091640180818F7D808340E050E064E36F
:1014F00072E4CE0143960E94CB0749E051E061E6D9
:1015000072E4CE010D960E94CB074EEB5FEB65EDCA
:1015100072E4CE0107960E94CB071A8219821C82C0
:101520001B821E821D8268E070E0CE0101960E943F
:101530006D07811103C1CE0101960E949507BE017E
:10154000695F7F4FCE0101960E9418080E94A7078D
:10155000BE01635F7F4F0E9418080E94A707BE016B
:101560006D5E7F4F0E941808FC01448155816081A7
:10157000718181E591E00E946F010E94DE06CE013B
:1015800001960E944B08CE0107960E944B08CE019F
:101590000D960E944B08CE0143960E944B08809105
:1015A0008A0290918B02A0918C02B0918D02CB9710
:1015B000A105B10581F08BE390E0A0E0B0E080935D
:1015C0008A0290938B02A0938C02B0938D0286E7DF
:1015D00092E00E9488048091460290914702A09177
:1015E0004802B09149028C3B9F4FAF4FBF4F81F0F3
:1015F0008CEB9FEFAFEFBFEF8093460290934702D3
:10160000A0934802B093490282E392E00E948804CA
:101610008091020290910302A0910402B091050210
:10162000873E9F4FAF4FBF4F81F087EE9FEFAFEFE9
:10163000BFEF8093020290930302A0930402B09341
:1016400005028EEE91E00E94880420E030E0A901BE
:1016500060918E0270918F02809190029091910220
:101660000E940B0E811175C040918A0250918B022D
:1016700060918C0270918D02809186029091870218
:10168000A0918802B0918902481759076A077B0721
:1016900009F05FC020E030E0A90160914A0270913A
:1016A0004B0280914C0290914D020E940B0E8111D1
:1016B00050C040914602509147026091480270919B
:1016C00049028091420290914302A0914402B0915C
:1016D0004502481759076A077B07D9F520E030E033
:1016E000A901609106027091070280910802909111
:1016F00009020E940B0E81112CC0409102025091F0
:10170000030260910402709105028091FE019091A4
:10171000FF01A0910002B0910102481759076A0722
:101720007B07B9F400E010E001151105E9F30E9410
:10173000D9018823C9F30E940000F6CF88E090E029
:101740009E838D836EE371E089819A810E940D13DF
:10175000F6CE86E792E00E94E10582E392E00E94E5
:10176000E1058EEE91E00E94E1056FCFEF920F93BD
:101770001F93CF93DF93E80134E047FD34E1042E5B
:10178000000C550B57FF03C0519541955109E32EAD
:10179000022F242FAE010E94D40BCE01DF91CF91F6
:1017A0001F910F91EF900895A9E0B0E0EAEDFBE002
:1017B0000C94350F6A01F22EB02E102FFBE3AF2EE2
:1017C000A01608F41BE31F5F012F27E0AE014F5F57
:1017D0005F4F0E94330DBC018981982F9970913021
:1017E00009F43FC09BE2E1FC04C09E2D9170E0FC37
:1017F0003AC05E2D5071E82FE87083FF46C084E048
:10180000911101C083E0EF2DE81B8F1508F0E0E097
:10181000D6018E2F20E2552351F1992329F0D601CC
:101820009C93C60101966C0196012D5F3F4FE2FE2D
:1018300024C08EE4D6018C9391E411969C93119769
:1018400012968C93D9018E2F90E281111BC0E20F6A
:10185000F32FF11D10828EEF9FEF2996ECE00C9490
:10186000510F9DE2C6CF90E2C4CF2D9381508111DC
:10187000FCCFCE0ED11CE0E0D0CF8EE6D6018C930B
:1018800091E6DBCF9D938150E0CF482F447082FFDB
:101890003DC084E0911101C083E08F1510F4EF2D5D
:1018A000E81BD6018E2F20E2552309F1992329F058
:1018B000D6019C93C60101966C0196012D5F3F4FA6
:1018C000E2FE1BC089E4D6018C938EE411968C93C2
:1018D000119786E412968C93D9018E2F90E288237B
:1018E00009F4B5CF9D938150FACF2D93815081118A
:1018F000FCCFCE0ED11CE0E0D9CF89E6D6018C9387
:101900008EE611968C93119786E6E4CF9B0177FFC4
:1019100002C030E020E0A1E0B0E0911102C0B0E0F0
:10192000A0E0F9013196AE0FBF1F8B2C912CBB208C
:1019300009F461C05401EFEFAE1ABE0AAA0DBB1D37
:10194000FA161B0619F014F04F2D4A1B511188C0CE
:10195000E3FC59C07601A42FB0E2A1114FC0C40E20
:10196000D11C992309F45BC040E0D6011196F60121
:1019700090836D01552309F448C0012F060F9A8109
:10198000582F507184FF03C0913309F40150101691
:101990000CF047C0093008F008E0EEE2FE2E5B01D3
:1019A000A01AB10885019194819491082F3F3207C4
:1019B00029F4D601FC92F60131966F016217730784
:1019C00094F1021713077CF5DB01A21BB30BAA24C9
:1019D000A394B12CAC0EBD1EAA0DBB1D11968C910B
:1019E00021503109D601119628153905F4F0F60178
:1019F00080836D01DBCFB12CA12CA0CFF701B19377
:101A00007F01A150AACF9111B0CFD601942F50E3FE
:101A100002C05D9391509111FCCFC40ED11C40E0E7
:101A2000ACCF01E0BACF80E3DBCF6217730731F4AC
:101A3000963388F4953311F4552369F0F6018083C9
:101A4000FD01842F90E2811108C0A40FB11D1C92EA
:101A500090E080E002CF81E3F1CF91938150F3CF0A
:101A6000911183CF8ACF283008F027E03327DA019D
:101A7000990F311D87FD916000966105710539F45C
:101A800032602E5F3D9330E32A95E1F708959F3F42
:101A900030F080387105610509F03C5F3C5F3D9393
:101AA000913008F08068911DDF93CF931F930F93BF
:101AB000FF92EF92192F987F9695E92F969596951C
:101AC000E90FFF27EE53FF4F99273327EE24FF241A
:101AD000A701E70105900894079428F4360FE71E44
:101AE000F81E491F511D660F771F881F991F069406
:101AF000A1F70590079428F4E70EF81E491F561F1A
:101B0000C11D770F881F991F661F0694A1F70590C6
:101B1000079428F4F80E491F561FC71FD11D880FC0
:101B2000991F661F771F0694A1F70590079420F46C
:101B3000490F561FC71FD81F990F661F771F881F91
:101B40000694A9F784911095177041F0D695C79522
:101B500057954795F794E7941A95C1F7E8E6F0E0B2
:101B600068941590159135916591959105907FE256
:101B70007395E118F10A430B560BC90BD009C0F756
:101B8000E10CF11E431F561FC91FD01D7EF4703398
:101B900011F48A95E6CFE894015030F0080F0AF46A
:101BA0000027021708F4202F2395022F7A3328F0FC
:101BB00079E37D932A95E9F710C07D932A9589F6FC
:101BC000069497956795379517951794E118F10A3C
:101BD000430B560BC90BD00998F023957E91739552
:101BE0007A3308F070E37C932013B8F77E9170612C
:101BF0007D9330F0839571E37D9370E32A95E1F74F
:101C00001124EF90FF900F911F91CF91DF919927B1
:101C100087FD909508950E944D0E08F481E0089587
:101C2000E89409C097FB3EF4909580957095619576
:101C30007F4F8F4F9F4F9923A9F0F92F96E9BB272C
:101C40009395F695879577956795B795F111F8CFA8
:101C5000FAF4BB0F11F460FF1BC06F5F7F4F8F4F13
:101C60009F4F16C0882311F096E911C0772321F009
:101C70009EE8872F762F05C0662371F096E8862FA1
:101C800070E060E02AF09A95660F771F881FDAF7F8
:101C9000880F9695879597F90895990F0008550F25
:101CA000AA0BE0E8FEEF16161706E807F907C0F0E2
:101CB00012161306E407F50798F0621B730B840BEA
:101CC000950B39F40A2661F0232B242B252B21F4C4
:101CD00008950A2609F4A140A6958FEF811D811D64
:101CE00008950E94840E0C94F50E0E94E70E38F0C1
:101CF0000E94EE0E20F0952311F00C94DE0E0C9451
:101D0000E40E11240C94290F0E94060F70F3959F86
:101D1000C1F3950F50E0551F629FF001729FBB27E2
:101D2000F00DB11D639FAA27F00DB11DAA1F649F7E
:101D30006627B00DA11D661F829F2227B00DA11D31
:101D4000621F739FB00DA11D621F839FA00D611DB7
:101D5000221F749F3327A00D611D231F849F600DD8
:101D6000211D822F762F6A2F11249F5750409AF001
:101D7000F1F088234AF0EE0FFF1FBB1F661F771F8D
:101D8000881F91505040A9F79E3F510580F00C9458
:101D9000DE0E0C94290F5F3FE4F3983ED4F3869552
:101DA00077956795B795F795E7959F5FC1F7FE2BF8
:101DB000880F911D9695879597F9089597F99F67D4
:101DC00080E870E060E008959FEF80EC08950024C3
:101DD0000A941616170618060906089500240A9490
:101DE00012161306140605060895092E0394000C16
:101DF00011F4882352F0BB0F40F4BF2B11F460FFA5
:101E000004C06F5F7F4F8F4F9F4F089557FD9058CD
:101E1000440F551F59F05F3F71F04795880F97FBAE
:101E2000991F61F09F3F79F0879508951216130668
:101E30001406551FF2CF4695F1DF08C01616170697
:101E40001806991FF1CF86957105610508940895CC
:101E5000E894BB2766277727CB0197F908952F923F
:101E60003F924F925F926F927F928F929F92AF922A
:101E7000BF92CF92DF92EF92FF920F931F93CF9377
:101E8000DF93CDB7DEB7CA1BDB0B0FB6F894DEBF0E
:101E90000FBECDBF09942A88398848885F846E8434
:101EA0007D848C849B84AA84B984C884DF80EE807E
:101EB000FD800C811B81AA81B981CE0FD11D0FB687
:101EC000F894DEBF0FBECDBFED0108955058BB277B
:101ED000AA270E947E0F0C94F50E0E94E70E38F0A0
:101EE0000E94EE0E20F039F49F3F19F426F40C9472
:101EF000E40E0EF4E095E7FB0C94DE0EE92F0E9451
:101F0000060F58F3BA17620773078407950720F086
:101F100079F4A6F50C94280F0EF4E0950B2EBA2F49
:101F2000A02D0B01B90190010C01CA01A0011124DF
:101F3000FF27591B99F0593F50F4503E68F11A168B
:101F4000F040A22F232F342F4427585FF3CF46951C
:101F500037952795A795F0405395C9F77EF41F163E
:101F6000BA0B620B730B840BBAF09150A1F0FF0F08
:101F7000BB1F661F771F881FC2F70EC0BA0F621FF4
:101F8000731F841F48F4879577956795B795F795E4
:101F90009E3F08F0B0CF9395880F08F09927EE0F79
:101FA0009795879508950E94E70F0C94F50E0E946F
:101FB000EE0E58F00E94E70E40F029F45F3F29F042
:101FC0000C94DE0E51110C94290F0C94E40E0E9417
:101FD000060F68F39923B1F3552391F3951B550B25
:101FE000BB27AA2762177307840738F09F5F5F4FEC
:101FF000220F331F441FAA1FA9F335D00E2E3AF02B
:10200000E0E832D091505040E695001CCAF72BD042
:10201000FE2F29D0660F771F881FBB1F2617370793
:102020004807AB07B0E809F0BB0B802DBF01FF27C5
:1020300093585F4F3AF09E3F510578F00C94DE0EB6
:102040000C94290F5F3FE4F3983ED4F3869577957F
:102050006795B795F7959F5FC9F7880F911D96957E
:10206000879597F90895E1E0660F771F881FBB1FDA
:10207000621773078407BA0720F0621B730B840B87
:10208000BA0BEE1F88F7E09508950E944C106894F3
:10209000B1110C94290F08950E940E0F88F09F57DC
:1020A00098F0B92F9927B751B0F0E1F0660F771F7C
:1020B000881F991F1AF0BA95C9F714C0B13091F072
:1020C0000E94280FB1E008950C94280F672F782FF5
:1020D0008827B85F39F0B93FCCF386957795679537
:1020E000B395D9F73EF490958095709561957F4FA3
:1020F0008F4F9F4F08950E944D0E08F48FEF089563
:1021000019F416F40C94E40E0C94C6100E940E0FF1
:10211000B8F39923C9F3B6F39F57550B87FF0E9475
:10212000D4100024A0E640EA900180585695979577
:1021300028F4805C660F771F881F20F0261737076A
:10214000480730F4621B730B840B202931294A2B7A
:10215000A69517940794202531254A2758F7660F2E
:10216000771F881F20F026173707480730F4620BC7
:10217000730B840B200D311D411DA09581F7B90112
:10218000842F9158880F9695879508959F3F31F039
:10219000915020F4879577956795B795880F911D95
:1021A0009695879597F9089591505040660F771F3F
:1021B000881FD2F70895052E97FB1EF400940E9405
:1021C000F21057FD07D00E94001107FC03D04EF417
:1021D0000C94F21050954095309521953F4F4F4FFC
:1021E0005F4F089590958095709561957F4F8F4FC3
:1021F0009F4F0895EE0FFF1F0590F491E02D099475
:10220000A1E21A2EAA1BBB1BFD010DC0AA1FBB1FFA
:10221000EE1FFF1FA217B307E407F50720F0A21B6C
:10222000B30BE40BF50B661F771F881F991F1A94D9
:1022300069F760957095809590959B01AC01BD0103
:10224000CF0108950F931F93CF93DF9382309105B1
:1022500010F482E090E0E091BC02F091BD0230E029
:1022600020E0B0E0A0E0309799F42115310509F4A1
:102270004AC0281B390B24303105D8F58A819B814F
:102280006115710589F1FB0193838283FE0111C001
:10229000408151810281138148175907E0F04817A6
:1022A000590799F4109761F012960C9312971396B0
:1022B0001C933296CF01DF91CF911F910F9108951A
:1022C0000093BC021093BD02F4CF2115310551F0EB
:1022D0004217530738F0A901DB019A01BD01DF0164
:1022E000F801C1CFEF01F9CF9093BD028093BC02FA
:1022F000CDCFFE01E20FF31F81939193225031095C
:1023000039832883D7CF2091BA023091BB02232B87
:1023100041F420910201309103013093BB022093DC
:10232000BA0220910001309101012115310541F4DB
:102330002DB73EB74091040150910501241B350B88
:10234000E091BA02F091BB02E217F307A0F42E1B52
:102350003F0B2817390778F0AC014E5F5F4F241709
:10236000350748F04E0F5F1F5093BB024093BA02EF
:10237000819391939FCFF0E0E0E09CCFCF93DF93E8
:102380000097E9F0FC01329713821282A091BC02FF
:10239000B091BD02ED0130E020E01097A1F4208162
:1023A0003181820F931F2091BA023091BB0228170E
:1023B000390709F061C0F093BB02E093BA02DF91E4
:1023C000CF910895EA01CE17DF07E8F54A815B81D6
:1023D0009E0141155105B1F7E901FB83EA8349915B
:1023E0005991C40FD51FEC17FD0761F480819181CD
:1023F0000296840F951FE9019983888382819381D6
:102400009B838A83F0E0E0E012968D919C91139774
:102410000097B9F52D913C911197CD010296820F4D
:10242000931F2091BA023091BB022817390739F661
:10243000309751F51092BD021092BC02B093BB02CE
:10244000A093BA02BCCFD383C28340815181840F51
:10245000951FC817D90761F44E5F5F4F8881998136
:10246000480F591F518340838A819B8193838283C4
:102470002115310509F0B0CFF093BD02E093BC0205
:102480009ECFFD01DC01C0CF13821282D7CFB0E016
:10249000A0E0EDE4F2E10C94310F8C01009751F4CF
:1024A000CB010E9422118C01C801CDB7DEB7E0E15B
:1024B0000C944D0FFC01E60FF71F9C0122503109CF
:1024C000E217F30708F49DC0D901CD91DC91119773
:1024D000C617D70798F0C530D10530F3CE01049761
:1024E0008617970708F3C61BD70B2297C193D19382
:1024F0006D937C93CF010E94BE11D6CF5B01AC1AC5
:10250000BD0A4C018C0E9D1EA091BC02B091BD0273
:10251000512C412CF12CE12C109731F58091BA020D
:102520009091BB028815990509F05CC046165706C4
:1025300008F058C08091000190910101009741F48A
:102540008DB79EB74091040150910501841B950BF6
:10255000E817F90708F055C0F093BB02E093BA0200
:10256000F90171836083A0CF8D919C911197129690
:102570006C90129713967C901397A815B90559F58E
:102580006C0142E0C40ED11CCA14DB0420F1AC0182
:102590004A195B09DA011296159780F062827382FC
:1025A00051834083D9016D937C93E114F10471F060
:1025B000D7011396FC93EE93129776CF22968C0F49
:1025C0009D1FF90191838083F301EFCFF093BD024A
:1025D000E093BC0269CF4816590608F42C017D012E
:1025E000D3019ACFCB010E9422117C01009749F0C0
:1025F000AE01B8010E940413C8010E94BE118701F8
:1026000053CF10E000E050CFFB01DC0102C001908D
:102610000D9241505040D8F70895FB01DC01019024
:102620000D920020E1F70895F894FFCF0000BE025C
:10263000800000000000AA027C02DD065308880426
:102640000A044804F403C203A1036D034C03F60219
:10265000C702000000000F026F019C015C02CD0167
:10266000AB01BF010D0A002C2000416E676C657341
:042670003A2000000C
:107E0000112484B714BE81FFF0D085E080938100F7
:107E100082E08093C00088E18093C10086E0809377
:107E2000C20080E18093C4008EE0C9D0259A86E02C
:107E300020E33CEF91E0309385002093840096BBD3
:107E4000B09BFECF1D9AA8958150A9F7CC24DD24C4
:107E500088248394B5E0AB2EA1E19A2EF3E0BF2EE7
:107E6000A2D0813461F49FD0082FAFD0023811F036
:107E7000013811F484E001C083E08DD089C08234E0
:107E800011F484E103C0853419F485E0A6D080C0E4
:107E9000853579F488D0E82EFF2485D0082F10E0AE
:107EA000102F00270E291F29000F111F8ED06801E7
:107EB0006FC0863521F484E090D080E0DECF843638
:107EC00009F040C070D06FD0082F6DD080E0C81688
:107ED00080E7D80618F4F601B7BEE895C0E0D1E017
:107EE00062D089930C17E1F7F0E0CF16F0E7DF06D8
:107EF00018F0F601B7BEE89568D007B600FCFDCFD4
:107F0000A601A0E0B1E02C9130E011968C91119780
:107F100090E0982F8827822B932B1296FA010C0160
:107F200087BEE89511244E5F5F4FF1E0A038BF0790
:107F300051F7F601A7BEE89507B600FCFDCF97BE46
:107F4000E89526C08437B1F42ED02DD0F82E2BD052
:107F50003CD0F601EF2C8F010F5F1F4F84911BD097
:107F6000EA94F801C1F70894C11CD11CFA94CF0C13
:107F7000D11C0EC0853739F428D08EE10CD085E9AC
:107F80000AD08FE07ACF813511F488E018D01DD067
:107F900080E101D065CF982F8091C00085FFFCCF94
:107FA0009093C60008958091C00087FFFCCF809118
:107FB000C00084FD01C0A8958091C6000895E0E648
:107FC000F0E098E1908380830895EDDF803219F02E
:107FD00088E0F5DFFFCF84E1DECF1F93182FE3DFCA
:107FE0001150E9F7F2DF1F91089580E0E8DFEE27F6
:047FF000FF270994CA
:027FFE00040479
:00000001FF
